:020000040800F2
:10000000001000204D1A0008DD190008DF19000853
:1000100000000000000000000000000000000000E0
:10002000000000000000000000000000E1190008CE
:100030000000000000000000E3190008E5190008B6
:100040009D1A0008000000009D1A00089D1A000873
:100050009D1A00089D1A00089D1A00089D1A0008A4
:10006000000000009D1A00089D1A00089D1A000853
:100070009D1A00089D1A00089D1A00080000000043
:100080009D1A000800000000000000009D1A0008F2
:10009000000000009D1A00089D1A00089D1A000823
:1000A000000000009D1A0008000000009D1A0008D2
:1000B0000000000000000000000000000000000040
:1000C00010B5064C2378002B07D1054B002B02D02E
:1000D000044800E000BF0123237010BD0800002089
:1000E00000000000F81A0008044B10B5002B03D0E4
:1000F0000349044800E000BF10BDC04600000000F6
:100100000C000020F81A0008002243088B4274D328
:1001100003098B425FD3030A8B4244D3030B8B4208
:1001200028D3030C8B420DD3FF22090212BA030C11
:100130008B4202D31212090265D0030B8B4219D3F2
:1001400000E0090AC30B8B4201D3CB03C01A524112
:10015000830B8B4201D38B03C01A5241430B8B425A
:1001600001D34B03C01A5241030B8B4201D30B0343
:10017000C01A5241C30A8B4201D3CB02C01A52416A
:10018000830A8B4201D38B02C01A5241430A8B422D
:1001900001D34B02C01A5241030A8B4201D30B0216
:1001A000C01A5241CDD2C3098B4201D3CB01C01A30
:1001B000524183098B4201D38B01C01A524143093A
:1001C0008B4201D34B01C01A524103098B4201D328
:1001D0000B01C01A5241C3088B4201D3CB00C01A95
:1001E000524183088B4201D38B00C01A524143080D
:1001F0008B4201D34B00C01A5241411A00D2014632
:10020000524110467047FFE701B5002000F006F8A4
:1002100002BDC0460029F7D076E770477047C04658
:1002200010B5040000F070FCFA218900FFF76CFFA4
:1002300000F068F8012000222100404200F032F86E
:10024000002010BD10B5064A136810210B4313603F
:100250000020FFF7E5FF01F099FB002010BDC0462C
:1002600000200240024A1368013313607047C04601
:1002700028000020014B18687047C0462800002065
:1002800030B583B00190FFF7F5FF0500019C631CBA
:1002900000D00134FFF7EEFF401BA042FAD303B0B9
:1002A00030BD000070B5002811DB8408134DC03448
:1002B000A400625903231840C000FC331E0086408E
:1002C000B24389010B4083401343635170BDC0B2F8
:1002D0000F220240083A920806329200084BD318C7
:1002E0005D6803242040C000FF2214008440A54321
:1002F00089010A4082402A435A60E7E700E100E0B2
:1003000000ED00E001380A4B98420FD8094A5060CE
:100310000948036A1B021B0AC02109060B4303623A
:100320000023936007331360002070470120FCE72F
:10033000FFFFFF0010E000E000ED00E0F0B5C64672
:1003400000B582B0002338E0032600E00026AE406E
:1003500035003D430234A400554EA551554C256847
:100360004246D4432E0026404A68D20302D5424674
:1003700015432E004F4D2E606D682E0026404A68B2
:10038000920302D5424615432E004A4D6E60AD6879
:100390002E0026404A68D20202D5424615432E005E
:1003A000444DAE60ED682C404A68920202D5424648
:1003B0002A4314003F4AD46001330A681400DC4029
:1003C00071D001259D402A409046F5D04C68022C02
:1003D00001D0122C0ED1DC080834A40027580726BF
:1003E0001E40B6000F22B24097430A69B240160081
:1003F0003E43265002685F0003242600BE40F643B9
:10040000324094464A681440BC406246144304603B
:100410004C68621E012A03D9112C01D0122C10D174
:1004200084683440A446CC68BC406246144384606F
:100430004468AC434A681209012515409D40254394
:100440004560C46826408C68BC403443C4604A6838
:10045000D200B1D5184DAE6901242643AE61AD6915
:100460002C400194019C9C08A51CAD00104EAF5976
:1004700003251D40AD000F26AE40B7439026F6057C
:10048000B04200D162E70D4EB04208D00C4EB042EF
:1004900007D00C4EB04200D156E7052657E701269B
:1004A00055E7022653E702B004BC9046F0BDC046B3
:1004B0000000014000040140001002400004004818
:1004C00000080048000C004803690B4201D10020DD
:1004D00070470120FCE7002A01D1816270478161E9
:1004E000FCE7000070B582B004000368DB0726D586
:1004F000AE4B5A680C231340042B18D0AB4B5A68F0
:100500000C231340082B0ED06368012B3CD0002B2A
:1005100051D1A64B1A68A6490A401A601A68A54923
:100520000A401A6036E0A14B5B68DB03ECD59F4BB9
:100530001B689B0303D56368002B00D1ECE12368A3
:100540009B0773D5994B5B680C221A425DD0974B81
:100550005A680C231340082B53D0E368002B00D1BA
:1005600086E0924A136801210B431360FFF782FE75
:1005700005008E4B1B689B0771D4FFF77BFE401B69
:100580000228F6D90320CAE1884A116880235B0259
:100590000B4313606368002B25D0FFF76BFE05004B
:1005A000824B1B689B03CAD4FFF764FE401B642880
:1005B000F6D90320B3E1052B09D07C4B1A687C499E
:1005C0000A401A601A687B490A401A60E2E7774BD2
:1005D00019688022D2020A431A60196880225202E6
:1005E0000A431A60D6E7FFF745FE05006F4B1B680C
:1005F0009B03A4D5FFF73EFE401B6428F6D90320D9
:100600008DE16A4B5B68DB03A7D4684B1B689B07D3
:1006100004D5E368012B01D0012080E163490B6818
:10062000F82293432269D20013430B6023681B070F
:1006300044D5E369002B2ED05C4A536A01210B4359
:100640005362FFF717FE0500584B5B6A9B0735D4D2
:10065000FFF710FE401B0228F6D903205FE1534943
:100660000B68F82293432269D20013430B60DDE745
:100670004E4A136801218B431360FFF7FBFD050011
:100680004A4B1B689B07D1D5FFF7F4FD401B02289E
:10069000F6D9032043E1454A536A01218B43536253
:1006A000FFF7E8FD0500414B5B6A9B0706D5FFF7A6
:1006B000E1FD401B0228F6D9032030E123685B07E7
:1006C00000D47FE0394BDB69DB001DD4374AD169A8
:1006D000802040050143D161D36903400193019B10
:1006E0000125354B1B68DB0510D5A368012B21D0F4
:1006F000002B36D12D4B1A6A01218A431A621A6ADD
:1007000003318A431A621AE00025EAE72A4A11688F
:1007100080235B000B431360FFF7ACFD0600264B04
:100720001B68DB05E1D4FFF7A5FD801B6428F6D923
:100730000320F4E01D4A136A01210B431362A368EE
:10074000002B24D0FFF796FD0600184B1B6A9B0771
:1007500036D4FFF78FFD801B184B9842F5D9032044
:10076000DDE0052B09D0114B1A6A01218A431A6278
:100770001A6A03318A431A62E1E70C4B1A6A0421B0
:100780000A431A621A6A03390A431A62D7E7FFF763
:1007900071FD0600054B1B6A9B0711D5FFF76AFD2B
:1007A000801B064B9842F5D90320B8E000100240A8
:1007B000FFFFFEFFFFFFFBFF0070004088130000FB
:1007C000012D33D02368DB0610D56369012B33D0AC
:1007D000053351D1544A536B04218B435363536BFC
:1007E000F4318B43A169C9000B435363236A002B87
:1007F00000D193E04C4A51680C220A40082A00D1EB
:100800008FE0022B4FD0484A136848490B401360D1
:10081000FFF730FD0400444B1B689B017AD5FFF7BE
:1008200029FD001B0228F6D9032078E03E4AD3694F
:100830003F490B40D361C5E73B4B5A6B04210A4348
:100840005A635A6B03390A435A63FFF713FD0500D5
:10085000354B5B6B9B0706D4FFF70CFD401B022852
:10086000F6D903205BE030494B6BF8229343A26931
:10087000D20013434B63B9E72B4B5A6B04210A4355
:100880005A635A6B03398A435A63FFF7F3FC050036
:10089000254B5B6B9B07A9D5FFF7ECFC401B02289F
:1008A000F6D903203BE0204A136820490B4013602F
:1008B000FFF7E0FC05001C4B1B689B0106D5FFF70A
:1008C000D9FC401B0228F6D9032028E0164BDA6A2F
:1008D0000F218A43E16A0A43DA625A6815490A40DD
:1008E000A16A606A01430A435A601968802252046F
:1008F0000A431A60FFF7BEFC04000B4B1B689B0108
:1009000006D4FFF7B7FC001B0228F6D9032006E047
:10091000002004E0002002E0012000E0002002B0FE
:1009200070BD0120FBE7C04600100240FFFFFFFE44
:10093000FFFFFFEFFFFFC2FF30B589B004AA194BDC
:10094000180032C832C2110002680A606A461033C9
:1009500013CB13C21B681360134B5A680C2313404C
:10096000042B03D0082B04D0104800E0104809B035
:1009700030BD910C0F23194004A8445C0A49C96A90
:100980000B406946C95CD30304D50948FFF7BCFB9B
:100990006043ECE763011B1B9801C01AC0000419F7
:1009A0002002E4E7101B00080010024000127A0049
:1009B0000040190170B505000C004D4B1A68012369
:1009C00013408B420BD24A490B68012293432343C5
:1009D0000B600B681A40A24201D0012070BD2B6849
:1009E0009B0706D5434A5368F0218B43A9680B4304
:1009F00053602B68DB074BD56B68012B20D0022B93
:100A000024D03C4A126892076FD53A494A680320BD
:100A1000824313434B60FFF72DFC06006B68012BEC
:100A20001AD0022B26D0334B5B680C221A422FD0EF
:100A3000FFF720FC801B304B9842F4D90320CDE710
:100A40002C4A12689203E0D40120C7E7294A1268B1
:100A50009201DAD40120C1E7264B5A680C231340D7
:100A6000042B15D0FFF706FC801B234B9842F3D9CB
:100A70000320B3E71F4B5A680C231340082B07D001
:100A8000FFF7F8FB801B1C4B9842F3D90320A5E726
:100A9000174B1A6801231340A3420BD914490B6862
:100AA0000122934323430B600B681A40A24201D0FA
:100AB000012093E72B685B0706D50E4A53680F4960
:100AC0000B40E9680B435360FFF736FF094B5A6848
:100AD00012090F2313400A4AD35CD840094B18600F
:100AE0000020FFF79DFB002078E7012076E7C04655
:100AF000002002400010024088130000FFF8FFFFB2
:100B0000581B000804000020014B18687047C046BD
:100B10000400002070B582B004000368DB0335D503
:100B20003C4BDB69DB0048D43A4AD1698020400560
:100B30000143D161D36903400193019B0125364BE9
:100B40001B68DB053BD5334B1B6AC0229200134068
:100B500013D061680A409A420FD02E4B186A2F4A70
:100B600002401E6A8021490231431962196A2C4EE3
:100B7000314019621A62C30735D4264A136A2749DD
:100B80000B4061680B431362012D3BD02368DB07E8
:100B900006D5204A136B03218B43A1680B431363D3
:100BA00023689B0633D51B4A136B10218B43E168E6
:100BB0000B431363002002B070BD0025BFE7164A47
:100BC000116880235B000B431360FFF753FB0600A3
:100BD000114B1B68DB05B6D4FFF74CFB801B642868
:100BE000F6D90320E7E7FFF745FB0600094B1B6A30
:100BF0009B07C2D4FFF73EFB801B0A4B9842F5D9F6
:100C00000320D8E7D36908490B40D361BEE7002031
:100C1000D1E7C0460010024000700040FFFCFFFF1B
:100C2000FFFFFEFF88130000FFFFFFEF70B5040019
:100C30000268D368A0218B43D360FFF71BFB05003C
:100C40002368DB689B0608D4FFF714FB401BFA23DC
:100C50009B009842F4D9032000E0002070BD70B5DD
:100C600004000368DA68520601D5002070BD012235
:100C70005242DA60FFF7FEFA05002368DB685B0684
:100C800008D4FFF7F7FA401BFA239B009842F4D9E7
:100C90000320EBE70020E9E770B5041E57D0437F3F
:100CA000002B3CD0022363772368CA225A62236850
:100CB000773A5A622000FFF7D2FF051E33D122682F
:100CC000936824490B40936021688A6863682069AF
:100CD00003436069034313438B602368E2681A612E
:100CE00021680B69A268120413430B612268D36860
:100CF00080218B43D36023689B689B061BD52268A9
:100D0000136C15490B4013642268136CA1690B43E3
:100D100013642368FF225A620123637709E0037793
:100D200000F04CFEBEE72368FF225A62042363777B
:100D30000125280070BD2000FFF778FF0028DED0D5
:100D40002368FF225A62042363770125F1E7012516
:100D5000EFE7C046BFFF8FFFFFFFFBFF002302E06E
:100D600001330A38C0B20928FAD81B01DBB2184394
:100D700070470000F8B504000E00037F012B00D17E
:100D800070E00123037701334377002A41D10368E0
:100D90009B685B0601D40023CB703078FFF7DEFF41
:100DA00005047078FFF7DAFF00020543B078FFF71B
:100DB000D5FF0543F078000405432368CA225A6230
:100DC0002368773A5A622000FFF749FF071E31D1A6
:100DD0002368254805401D602268936823490B401D
:100DE000936021688B68F2683069024313438B601B
:100DF0002268D36880218B43D36023689B689B065D
:100E000022D52368FF225A620123637700232377C8
:100E100018E003689B685B0601D40023CB7035782B
:100E20002D04707800020543B0780543F078000483
:100E30000543C2E72368FF225A6204236377002335
:100E4000237701273800F8BD2000FFF7EFFE0028C8
:100E5000D7D02368FF225A620423637700232377C5
:100E60000127EFE70227EDE77F7F7F00FFFFFBFF12
:100E700070B504000E00037F012B61D001230377BE
:100E800001334377002A06D14B78D90603D51021C8
:100E90008B430A337370002A2FD1F078FFF75EFF7F
:100EA00005047078FFF75AFF00020543B078FFF79A
:100EB00055FF05433078400305432368CA225A6230
:100EC0002368773A5A622000FFF7C9FE061E1FD139
:100ED00023681C4805405D602268D36880218B43ED
:100EE000D36023689B689B061CD52368FF225A6247
:100EF000012363770023237712E07378B078F578C5
:100F00002D041B021D430543307840030543D4E7FD
:100F10002368FF225A620423637700232377012684
:100F2000300070BD2000FFF781FE0028DDD023686F
:100F3000FF225A6204236377002323770126EFE719
:100F40000226EDE73FFFFF00F8B504000D00037F28
:100F5000012B00D17AE00123037701334377002A84
:100F600049D103689B685B0601D40023CB70EE690E
:100F70002878FFF7F3FE07046878FFF7EFFE00021A
:100F80000743A878FFF7EAFE0743E8780004074321
:100F90002023E85CFFF7E2FE000607433E436B694F
:100FA0001E436F68AB691F432368CA225A622368D5
:100FB000773A5A622268936825490B409360226809
:100FC000936824490B409360FFF754F905002368A8
:100FD000DA68D20728D4FFF74DF9401BFA239B00AB
:100FE0009842F4D92368FF225A62032363770023CF
:100FF0002377032029E003689B685B0601D4002364
:10100000CB702E7836046B781B021E43AB781E43E0
:10101000EB781B041E432023EB5C1B061E43EB698D
:101020001E436B691E43BCE7DE6123685F64226870
:10103000916880235B000B4393602368FF225A6210
:1010400001236377002323770020F8BD0220FCE70B
:10105000FFFEFFFFFFEFFFFF020993009B185A00FE
:101060000F2318408018C0B270470000F8B50C007C
:1010700003689B6A4B6003681B695B045B0C8B60B5
:1010800003681B680E490B401E0C3F203040207047
:101090001D0A7F273D4065701F40A77040213140E9
:1010A000E170002A0AD1FFF7D7FF20702800FFF770
:1010B000D3FF60703800FFF7CFFFA0700020F8BDAD
:1010C0007F7F7F0070B50C0003685B680E490B40A2
:1010D000180CE070190A1F260E4066703F251D404F
:1010E000A5705B0B07210B402370002A0AD1FFF784
:1010F000B3FFE0703000FFF7AFFF60702800FFF72C
:10110000ABFFA070002070BD3FFFFF00F0B589B0BD
:101110001422002103A800F0E7FC284B5969802025
:10112000C003014359615A6902400092009A59690B
:1011300080208002014359615A6902400192019A5C
:101140005A698021C9020A435A615B690B400293C4
:10115000029B9025ED05002219492800FFF7BBF9F5
:10116000002202211748FFF7B6F90F230393012449
:101170000494022705970026069603A92800FFF786
:10118000DDF8114B039304940594069603A92800F7
:10119000FFF7D4F8039704940594069603A9094829
:1011A000FFF7CCF8C023DB0003930496059403A952
:1011B0002800FFF7C3F809B0F0BDC0460010024098
:1011C000FF60000000040048F0600000F0B591B03E
:1011D0000BAE14220021300000F086FC0AAF002480
:1011E0000A9428220021684600F07EFC1B4D1C4B0F
:1011F0002B606C607F23AB601A4BEB602C616C61E1
:10120000AC612800FFF748FD34707470B470F4606E
:101210003461002231002800FFF7ACFD01263E704A
:101220007E70BE70FE70002239002800FFF720FE9D
:101230006B461C705C709C7001940394049405943C
:101240000694079420236A46D654E033099300227B
:1012500069462800FFF778FE11B0F0BD7C00002041
:10126000002800409311000000B595B0282200210D
:101270000AA800F039FC1022002104A800F034FC78
:1012800010220021684600F02FFC03230893023B44
:1012900009930B930F330C9308A8FFF723F9072347
:1012A00004930023059306930793002104A8FFF7F6
:1012B00081FB80235B020093C0239B00019368465F
:1012C000FFF728FC15B000BD70B506000D00902496
:1012D000E405002208212000FFF7FDF80022042188
:1012E0002000FFF7F8F8002202212000FFF7F3F8B2
:1012F000002201212000FFF7EEF80122202120002A
:10130000FFF7E9F8012240212000FFF7E4F801226D
:1013100080212000FFF7DFF801220221AD48FFF70E
:10132000DAF88021012289012000FFF7D4F880211A
:101330000122C9012000FFF7CEF801221021200070
:10134000FFF7C9F8022E19D00ADD032E1DD0042E96
:1013500044D1902001220121C005FFF7BCF807E02D
:10136000012E3BD1902001220821C005FFF7B3F8E0
:10137000092D33D8AD00984B5B599F469020012230
:101380000421C005FFF7A7F8F2E79020012202210F
:10139000C005FFF7A0F8EBE79024E4050022202128
:1013A0002000FFF798F8002240212000FFF793F873
:1013B000002280212000FFF78EF8002202218548BC
:1013C000FFF789F88021002289012000FFF783F8C8
:1013D00080210022C9012000FFF77DF870BD902414
:1013E000E405002240212000FFF775F8002280214B
:1013F0002000FFF770F8F1E79024E4050022202197
:101400002000FFF768F8002240212000FFF763F872
:10141000002210212000FFF75EF8802100228901C0
:101420002000FFF758F8002202216A48FFF753F81E
:10143000D4E79024E405002220212000FFF74BF898
:10144000002240212000FFF746F800221021200052
:10145000FFF741F8002280212000FFF73CF800222E
:1014600002215C48FFF737F8B8E79024E405002232
:1014700040212000FFF72FF8002210212000FFF765
:101480002AF880210022C9012000FFF724F8002259
:1014900080212000FFF71FF8A0E79024E405002238
:1014A00020212000FFF717F880210022C901200029
:1014B000FFF711F8002210212000FFF70CF800229E
:1014C00080212000FFF707F8002202214148FFF7A2
:1014D00002F883E79024E405002220212000FEF793
:1014E000FAFF80210022C9012000FEF7F4FF00224C
:1014F00010212000FEF7EFFF002280212000FEF7E0
:10150000EAFF8021002289012000FEF7E4FF00228B
:1015100002213048FEF7DFFF60E79024E405002257
:1015200020212000FEF7D7FF002240212000FEF7F7
:10153000D2FF002280212000FEF7CDFF4EE790244D
:10154000E405002220212000FEF7C5FF00224021F3
:101550002000FEF7C0FF002280212000FEF7BBFF25
:10156000002202211B48FEF7B6FF802100228901DC
:101570002000FEF7B0FF80210022C9012000FEF705
:10158000AAFF002210212000FEF7A5FF26E79024E5
:10159000E405002220212000FEF79DFF00224021CB
:1015A0002000FEF798FF002280212000FEF793FF25
:1015B000002202210748FEF78EFF002210212000A2
:1015C000FEF789FF80210022C9012000FEF783FF7A
:1015D00004E7C04600040048301B0008F8B50600C8
:1015E0000D009024E405002208212000FEF773FF7F
:1015F000002204212000FEF76EFF002202212000BD
:10160000FEF769FF002201212000FEF764FF01229E
:1016100020212000FEF75FFF012240212000FEF77D
:101620005AFF012280212000FEF755FF01220221EE
:101630002248FEF750FF8021012289012000FEF799
:101640004AFF80210122C9012000FEF744FF012248
:1016500010212000FEF73FFF092D00DC2F002B009A
:101660000A3B092B27D81F0001212B00143B092B13
:1016700001D81F0002212B001E3B092B01D81F009F
:1016800003212B00283B092B01D81F0004212B002C
:10169000323B092B01D81F0005213000FFF714FE53
:1016A0000120FEF7EDFD701C3900FFF70DFE012053
:1016B000FEF7E6FDF8BD0021D7E7C046000400486C
:1016C00070B5FEF7BFFDFFF7CFFDFFF71FFDFFF77A
:1016D0007DFD28E196204000FEF7D2FDA04D0022BE
:1016E000A0492800FFF7EEFC9F4C002221002800B3
:1016F000FFF7BCFC22789D4B1A6061789C4B196007
:10170000A0789C4B18609C4B1B68012B61D0022B6E
:1017100064D0032B66D09024E40500220821200029
:10172000FEF7D9FE002204212000FEF7D4FE00229D
:1017300002212000FEF7CFFE002201212000FEF74B
:10174000CAFE012220212000FEF7C5FE0122402111
:101750002000FEF7C0FE012280212000FEF7BBFE24
:10176000012202218548FEF7B6FE8021012289016F
:101770002000FEF7B0FE80210122C9012000FEF703
:10178000AAFE012210212000FEF7A5FE7A4B1B685D
:10179000012B2CD0784B1B68022B53D0764B1B6847
:1017A000032B7AD0744B1B68002B00DC99E080215E
:1017B0009020C900C005FEF787FE00288ED16E4A32
:1017C000136801331360032B84DD130000221A60B9
:1017D00080E711000120FFF701FF9CE70320FFF7DE
:1017E000FDFE98E701000320FFF7F8FE93E7802154
:1017F00090208900C005FEF767FE0028CAD15B4A29
:10180000136801331360172B02DD130000221A60E6
:101810005B4C564B1B682370554B1B686370554BD4
:101820001B68A3704E4D002256492800FFF720FB8D
:10183000002221002800FFF79DFA534B1868FEF79D
:101840001FFDA7E7802190208900C005FEF73CFE20
:101850000028A3D1464A1368013313603B2B02DDF5
:10186000130000221A60464C404B1B682370404B0B
:101870001B6863703F4B1B68A370394D00224149C0
:101880002800FFF7F5FA002221002800FFF772FA7E
:101890003D4B1868FEF7F4FC80E78021902089001A
:1018A000C005FEF711FE002800D07BE70023314A77
:1018B0001360334C2D4A126822702D4A12686270F0
:1018C000A370274D00222F492800FFF7D1FA0022EC
:1018D00021002800FFF74EFA2B4B1868FEF7D0FCCA
:1018E00060E7802190208900C005FEF7EDFD00280B
:1018F0002AD1204B19680330FFF770FE184D0022E3
:1019000018492800FFF7DEFB174C002221002800B1
:10191000FFF7ACFB2278154B1A606278144B1A6003
:10192000A278144B1A6080219020C900C005FEF7F0
:10193000CBFD002800D035E70F4B01221A6096300E
:101940004000FEF79DFC2DE7084B19680120FFF7CA
:1019500045FE074B19680320FFF740FECEE7C0465F
:101960007C0000202C00002054000020A400002057
:10197000A00000209C00002024000020000400485B
:1019800040000020680000200000002082B00A4BC8
:10199000996901221143996199690A400092009A5C
:1019A000DA69802149050A43DA61DB690B4001935A
:1019B000019B02B07047C046001002400268054B10
:1019C0009A4200D07047044A116A80231B020B43DD
:1019D0001362F7E700280040001002407047FEE75E
:1019E0007047704710B5FEF73DFC10BD114B1A68EB
:1019F00001210A431A605A680F4802405A601A6867
:101A00000E4802401A601A680D4802401A605A686F
:101A10000C4802405A60DA6A0F208243DA621A6B7D
:101A2000094802401A635A6B8A435A6300229A603B
:101A30007047C046001002400CB8FF08FFFFF6FEDA
:101A4000FFFFFBFFFFFFC0FFECFEFFFF0D488546D9
:101A50000D480E490E4A002302E0D458C450043306
:101A6000C4188C42F9D30B4A0B4C002301E01360DD
:101A70000432A242FBD3FFF7B9FF00F011F8FFF7E1
:101A80001FFEFEE7001000200000002008000020DC
:101A9000781B000808000020A8000020FEE70000D6
:101AA00070B500260C4D0D4C641BA410A64209D144
:101AB000002600F021F80A4D0A4C641BA410A6422F
:101AC00005D170BDB300EB5898470136EEE7B3007F
:101AD000EB5898470136F2E7701B0008701B0008AE
:101AE000701B0008741B000803001218934200D1F9
:101AF000704719700133F9E7F8B5C046F8BC08BC67
:101B00009E467047F8B5C046F8BC08BC9E46704774
:101B100002030405060708090A0B0C0D0E0F10102E
:101B20000102030405060708090A0B0C0D0E0F102D
:101B300098130008DE130008F81300083214000898
:101B40006A1400089A140008D41400081A15000832
:101B50003E1500088E15000800000000000000007F
:101B60000102030406070809000000000102030443
:041B7000E900000880
:041B7400C1000008A4
:081B78006400000000127A0075
:0400000508001A4D88
:00000001FF
