:020000040800F2
:1000000000100020011C0008911B0008931B000831
:1000100000000000000000000000000000000000E0
:10002000000000000000000000000000951B000818
:100030000000000000000000971B0008991B00084A
:10004000511C000800000000511C0008511C000851
:10005000511C0008511C0008511C0008511C0008CC
:1000600000000000511C0008511C0008511C000831
:10007000511C0008511C0008511C00080000000021
:10008000511C00080000000000000000511C000886
:1000900000000000511C0008511C0008511C000801
:1000A00000000000511C000800000000511C000866
:1000B0000000000000000000000000000000000040
:1000C00010B5064C2378002B07D1054B002B02D02E
:1000D000044800E000BF0123237010BD0C00002085
:1000E00000000000AC1C0008044B10B5002B03D02E
:1000F0000349044800E000BF10BDC04600000000F6
:1001000010000020AC1C0008002243088B4274D36E
:1001100003098B425FD3030A8B4244D3030B8B4208
:1001200028D3030C8B420DD3FF22090212BA030C11
:100130008B4202D31212090265D0030B8B4219D3F2
:1001400000E0090AC30B8B4201D3CB03C01A524112
:10015000830B8B4201D38B03C01A5241430B8B425A
:1001600001D34B03C01A5241030B8B4201D30B0343
:10017000C01A5241C30A8B4201D3CB02C01A52416A
:10018000830A8B4201D38B02C01A5241430A8B422D
:1001900001D34B02C01A5241030A8B4201D30B0216
:1001A000C01A5241CDD2C3098B4201D3CB01C01A30
:1001B000524183098B4201D38B01C01A524143093A
:1001C0008B4201D34B01C01A524103098B4201D328
:1001D0000B01C01A5241C3088B4201D3CB00C01A95
:1001E000524183088B4201D38B00C01A524143080D
:1001F0008B4201D34B00C01A5241411A00D2014632
:10020000524110467047FFE701B5002000F006F8A4
:1002100002BDC0460029F7D076E770477047C04658
:1002200010B5040000F070FCFA218900FFF76CFFA4
:1002300000F068F8012000222100404200F032F86E
:10024000002010BD10B5064A136810210B4313603F
:100250000020FFF7E5FF01F073FC002010BDC04651
:1002600000200240024A1368013313607047C04601
:1002700030000020014B18687047C0463000002055
:1002800030B583B00190FFF7F5FF0500019C631CBA
:1002900000D00134FFF7EEFF401BA042FAD303B0B9
:1002A00030BD000070B5002811DB8408134DC03448
:1002B000A400625903231840C000FC331E0086408E
:1002C000B24389010B4083401343635170BDC0B2F8
:1002D0000F220240083A920806329200084BD318C7
:1002E0005D6803242040C000FF2214008440A54321
:1002F00089010A4082402A435A60E7E700E100E0B2
:1003000000ED00E001380A4B98420FD8094A5060CE
:100310000948036A1B021B0AC02109060B4303623A
:100320000023936007331360002070470120FCE72F
:10033000FFFFFF0010E000E000ED00E0F0B5C64672
:1003400000B582B0002338E0032600E00026AE406E
:1003500035003D430234A400554EA551554C256847
:100360004246D4432E0026404A68D20302D5424674
:1003700015432E004F4D2E606D682E0026404A68B2
:10038000920302D5424615432E004A4D6E60AD6879
:100390002E0026404A68D20202D5424615432E005E
:1003A000444DAE60ED682C404A68920202D5424648
:1003B0002A4314003F4AD46001330A681400DC4029
:1003C00071D001259D402A409046F5D04C68022C02
:1003D00001D0122C0ED1DC080834A40027580726BF
:1003E0001E40B6000F22B24097430A69B240160081
:1003F0003E43265002685F0003242600BE40F643B9
:10040000324094464A681440BC406246144304603B
:100410004C68621E012A03D9112C01D0122C10D174
:1004200084683440A446CC68BC406246144384606F
:100430004468AC434A681209012515409D40254394
:100440004560C46826408C68BC403443C4604A6838
:10045000D200B1D5184DAE6901242643AE61AD6915
:100460002C400194019C9C08A51CAD00104EAF5976
:1004700003251D40AD000F26AE40B7439026F6057C
:10048000B04200D162E70D4EB04208D00C4EB042EF
:1004900007D00C4EB04200D156E7052657E701269B
:1004A00055E7022653E702B004BC9046F0BDC046B3
:1004B0000000014000040140001002400004004818
:1004C00000080048000C004803690B4201D10020DD
:1004D00070470120FCE7002A01D1816270478161E9
:1004E000FCE7000070B582B004000368DB0726D586
:1004F000AE4B5A680C231340042B18D0AB4B5A68F0
:100500000C231340082B0ED06368012B3CD0002B2A
:1005100051D1A64B1A68A6490A401A601A68A54923
:100520000A401A6036E0A14B5B68DB03ECD59F4BB9
:100530001B689B0303D56368002B00D1ECE12368A3
:100540009B0773D5994B5B680C221A425DD0974B81
:100550005A680C231340082B53D0E368002B00D1BA
:1005600086E0924A136801210B431360FFF782FE75
:1005700005008E4B1B689B0771D4FFF77BFE401B69
:100580000228F6D90320CAE1884A116880235B0259
:100590000B4313606368002B25D0FFF76BFE05004B
:1005A000824B1B689B03CAD4FFF764FE401B642880
:1005B000F6D90320B3E1052B09D07C4B1A687C499E
:1005C0000A401A601A687B490A401A60E2E7774BD2
:1005D00019688022D2020A431A60196880225202E6
:1005E0000A431A60D6E7FFF745FE05006F4B1B680C
:1005F0009B03A4D5FFF73EFE401B6428F6D90320D9
:100600008DE16A4B5B68DB03A7D4684B1B689B07D3
:1006100004D5E368012B01D0012080E163490B6818
:10062000F82293432269D20013430B6023681B070F
:1006300044D5E369002B2ED05C4A536A01210B4359
:100640005362FFF717FE0500584B5B6A9B0735D4D2
:10065000FFF710FE401B0228F6D903205FE1534943
:100660000B68F82293432269D20013430B60DDE745
:100670004E4A136801218B431360FFF7FBFD050011
:100680004A4B1B689B07D1D5FFF7F4FD401B02289E
:10069000F6D9032043E1454A536A01218B43536253
:1006A000FFF7E8FD0500414B5B6A9B0706D5FFF7A6
:1006B000E1FD401B0228F6D9032030E123685B07E7
:1006C00000D47FE0394BDB69DB001DD4374AD169A8
:1006D000802040050143D161D36903400193019B10
:1006E0000125354B1B68DB0510D5A368012B21D0F4
:1006F000002B36D12D4B1A6A01218A431A621A6ADD
:1007000003318A431A621AE00025EAE72A4A11688F
:1007100080235B000B431360FFF7ACFD0600264B04
:100720001B68DB05E1D4FFF7A5FD801B6428F6D923
:100730000320F4E01D4A136A01210B431362A368EE
:10074000002B24D0FFF796FD0600184B1B6A9B0771
:1007500036D4FFF78FFD801B184B9842F5D9032044
:10076000DDE0052B09D0114B1A6A01218A431A6278
:100770001A6A03318A431A62E1E70C4B1A6A0421B0
:100780000A431A621A6A03390A431A62D7E7FFF763
:1007900071FD0600054B1B6A9B0711D5FFF76AFD2B
:1007A000801B064B9842F5D90320B8E000100240A8
:1007B000FFFFFEFFFFFFFBFF0070004088130000FB
:1007C000012D33D02368DB0610D56369012B33D0AC
:1007D000053351D1544A536B04218B435363536BFC
:1007E000F4318B43A169C9000B435363236A002B87
:1007F00000D193E04C4A51680C220A40082A00D1EB
:100800008FE0022B4FD0484A136848490B401360D1
:10081000FFF730FD0400444B1B689B017AD5FFF7BE
:1008200029FD001B0228F6D9032078E03E4AD3694F
:100830003F490B40D361C5E73B4B5A6B04210A4348
:100840005A635A6B03390A435A63FFF713FD0500D5
:10085000354B5B6B9B0706D4FFF70CFD401B022852
:10086000F6D903205BE030494B6BF8229343A26931
:10087000D20013434B63B9E72B4B5A6B04210A4355
:100880005A635A6B03398A435A63FFF7F3FC050036
:10089000254B5B6B9B07A9D5FFF7ECFC401B02289F
:1008A000F6D903203BE0204A136820490B4013602F
:1008B000FFF7E0FC05001C4B1B689B0106D5FFF70A
:1008C000D9FC401B0228F6D9032028E0164BDA6A2F
:1008D0000F218A43E16A0A43DA625A6815490A40DD
:1008E000A16A606A01430A435A601968802252046F
:1008F0000A431A60FFF7BEFC04000B4B1B689B0108
:1009000006D4FFF7B7FC001B0228F6D9032006E047
:10091000002004E0002002E0012000E0002002B0FE
:1009200070BD0120FBE7C04600100240FFFFFFFE44
:10093000FFFFFFEFFFFFC2FF30B589B004AA1A4BDB
:10094000180032C832C2110002680A606A461033C9
:1009500013CB13C21B681360144B5A680C2313404B
:10096000042B03D0082B05D0114801E0E120C0037F
:1009700009B030BD910C0F23194004A8445C0B4909
:10098000C96A0B406946C95CD30305D5E120C003A1
:10099000FFF7BAFB6043EBE763011B1B9801C01A2A
:1009A000C00004192002E3E7C41C00080010024044
:1009B00000127A0070B505000C004D4B1A68012337
:1009C00013408B420BD24A490B68012293432343C5
:1009D0000B600B681A40A24201D0012070BD2B6849
:1009E0009B0706D5434A5368F0218B43A9680B4304
:1009F00053602B68DB074BD56B68012B20D0022B93
:100A000024D03C4A126892076FD53A494A680320BD
:100A1000824313434B60FFF72DFC06006B68012BEC
:100A20001AD0022B26D0334B5B680C221A422FD0EF
:100A3000FFF720FC801B304B9842F4D90320CDE710
:100A40002C4A12689203E0D40120C7E7294A1268B1
:100A50009201DAD40120C1E7264B5A680C231340D7
:100A6000042B15D0FFF706FC801B234B9842F3D9CB
:100A70000320B3E71F4B5A680C231340082B07D001
:100A8000FFF7F8FB801B1C4B9842F3D90320A5E726
:100A9000174B1A6801231340A3420BD914490B6862
:100AA0000122934323430B600B681A40A24201D0FA
:100AB000012093E72B685B0706D50E4A53680F4960
:100AC0000B40E9680B435360FFF736FF094B5A6848
:100AD00012090F2313400A4AD35CD840094B18600F
:100AE0000020FFF79DFB002078E7012076E7C04655
:100AF000002002400010024088130000FFF8FFFFB2
:100B0000141D000808000020014B18687047C046FB
:100B10000800002070B582B004000368DB0335D5FF
:100B20003C4BDB69DB0048D43A4AD1698020400560
:100B30000143D161D36903400193019B0125364BE9
:100B40001B68DB053BD5334B1B6AC0229200134068
:100B500013D061680A409A420FD02E4B186A2F4A70
:100B600002401E6A8021490231431962196A2C4EE3
:100B7000314019621A62C30735D4264A136A2749DD
:100B80000B4061680B431362012D3BD02368DB07E8
:100B900006D5204A136B03218B43A1680B431363D3
:100BA00023689B0633D51B4A136B10218B43E168E6
:100BB0000B431363002002B070BD0025BFE7164A47
:100BC000116880235B000B431360FFF753FB0600A3
:100BD000114B1B68DB05B6D4FFF74CFB801B642868
:100BE000F6D90320E7E7FFF745FB0600094B1B6A30
:100BF0009B07C2D4FFF73EFB801B0A4B9842F5D9F6
:100C00000320D8E7D36908490B40D361BEE7002031
:100C1000D1E7C0460010024000700040FFFCFFFF1B
:100C2000FFFFFEFF88130000FFFFFFEF70B5040019
:100C30000268D368A0218B43D360FFF71BFB05003C
:100C40002368DB689B0608D4FFF714FB401BFA23DC
:100C50009B009842F4D9032000E0002070BD70B5DD
:100C600004000368DA68520601D5002070BD012235
:100C70005242DA60FFF7FEFA05002368DB685B0684
:100C800008D4FFF7F7FA401BFA239B009842F4D9E7
:100C90000320EBE70020E9E770B5041E57D0437F3F
:100CA000002B3CD0022363772368CA225A62236850
:100CB000773A5A622000FFF7D2FF051E33D122682F
:100CC000936824490B40936021688A6863682069AF
:100CD00003436069034313438B602368E2681A612E
:100CE00021680B69A268120413430B612268D36860
:100CF00080218B43D36023689B689B061BD52268A9
:100D0000136C15490B4013642268136CA1690B43E3
:100D100013642368FF225A620123637709E0037793
:100D200000F026FFBEE72368FF225A6204236377A0
:100D30000125280070BD2000FFF778FF0028DED0D5
:100D40002368FF225A62042363770125F1E7012516
:100D5000EFE7C046BFFF8FFFFFFFFBFF002302E06E
:100D600001330A38C0B20928FAD81B01DBB2184394
:100D700070470000F8B504000E00037F012B00D17E
:100D800070E00123037701334377002A41D10368E0
:100D90009B685B0601D40023CB703078FFF7DEFF41
:100DA00005047078FFF7DAFF00020543B078FFF71B
:100DB000D5FF0543F078000405432368CA225A6230
:100DC0002368773A5A622000FFF749FF071E31D1A6
:100DD0002368254805401D602268936823490B401D
:100DE000936021688B68F2683069024313438B601B
:100DF0002268D36880218B43D36023689B689B065D
:100E000022D52368FF225A620123637700232377C8
:100E100018E003689B685B0601D40023CB7035782B
:100E20002D04707800020543B0780543F078000483
:100E30000543C2E72368FF225A6204236377002335
:100E4000237701273800F8BD2000FFF7EFFE0028C8
:100E5000D7D02368FF225A620423637700232377C5
:100E60000127EFE70227EDE77F7F7F00FFFFFBFF12
:100E700070B504000E00037F012B61D001230377BE
:100E800001334377002A06D14B78D90603D51021C8
:100E90008B430A337370002A2FD1F078FFF75EFF7F
:100EA00005047078FFF75AFF00020543B078FFF79A
:100EB00055FF05433078400305432368CA225A6230
:100EC0002368773A5A622000FFF7C9FE061E1FD139
:100ED00023681C4805405D602268D36880218B43ED
:100EE000D36023689B689B061CD52368FF225A6247
:100EF000012363770023237712E07378B078F578C5
:100F00002D041B021D430543307840030543D4E7FD
:100F10002368FF225A620423637700232377012684
:100F2000300070BD2000FFF781FE0028DDD023686F
:100F3000FF225A6204236377002323770126EFE719
:100F40000226EDE73FFFFF00F8B504000D00037F28
:100F5000012B00D17AE00123037701334377002A84
:100F600049D103689B685B0601D40023CB70EE690E
:100F70002878FFF7F3FE07046878FFF7EFFE00021A
:100F80000743A878FFF7EAFE0743E8780004074321
:100F90002023E85CFFF7E2FE000607433E436B694F
:100FA0001E436F68AB691F432368CA225A622368D5
:100FB000773A5A622268936825490B409360226809
:100FC000936824490B409360FFF754F905002368A8
:100FD000DA68D20728D4FFF74DF9401BFA239B00AB
:100FE0009842F4D92368FF225A62032363770023CF
:100FF0002377032029E003689B685B0601D4002364
:10100000CB702E7836046B781B021E43AB781E43E0
:10101000EB781B041E432023EB5C1B061E43EB698D
:101020001E436B691E43BCE7DE6123685F64226870
:10103000916880235B000B4393602368FF225A6210
:1010400001236377002323770020F8BD0220FCE70B
:10105000FFFEFFFFFFEFFFFF020993009B185A00FE
:101060000F2318408018C0B270470000F8B50C007C
:1010700003689B6A4B6003681B695B045B0C8B60B5
:1010800003681B680E490B401E0C3F203040207047
:101090001D0A7F273D4065701F40A77040213140E9
:1010A000E170002A0AD1FFF7D7FF20702800FFF770
:1010B000D3FF60703800FFF7CFFFA0700020F8BDAD
:1010C0007F7F7F0070B50C0003685B680E490B40A2
:1010D000180CE070190A1F260E4066703F251D404F
:1010E000A5705B0B07210B402370002A0AD1FFF784
:1010F000B3FFE0703000FFF7AFFF60702800FFF72C
:10110000ABFFA070002070BD3FFFFF00F0B589B0BD
:101110001422002103A800F0C1FD284B596980204A
:10112000C003014359615A6902400092009A59690B
:1011300080208002014359615A6902400192019A5C
:101140005A698021C9020A435A615B690B400293C4
:10115000029B9025ED05002219492800FFF7BBF9F5
:10116000002202211748FFF7B6F90F230393012449
:101170000494022705970026069603A92800FFF786
:10118000DDF8114B039304940594069603A92800F7
:10119000FFF7D4F8039704940594069603A9094829
:1011A000FFF7CCF8C023DB0003930496059403A952
:1011B0002800FFF7C3F809B0F0BDC0460010024098
:1011C000FF60000000040048F0600000F0B591B03E
:1011D0000BAE14220021300000F060FD0AAF0024A5
:1011E0000A9428220021684600F058FD1B4D1C4B34
:1011F0002B606C607F23AB601A4BEB602C616C61E1
:10120000AC612800FFF748FD34707470B470F4606E
:101210003461002231002800FFF7ACFD01263E704A
:101220007E70BE70FE70002239002800FFF720FE9D
:101230006B461C705C709C7001940394049405943C
:101240000694079420236A46D654E033099300227B
:1012500069462800FFF778FE11B0F0BD8400002039
:10126000002800400707000000B595B028220021A3
:101270000AA800F013FD1022002104A800F00EFDC2
:1012800010220021684600F009FD03230893023B69
:1012900009930B930F330C9308A8FFF723F9072347
:1012A00004930023059306930793002104A8FFF7F6
:1012B00081FB80235B020093C0239B00019368465F
:1012C000FFF728FC15B000BD70B506000D00902496
:1012D000E405002208212000FFF7FDF80022042188
:1012E0002000FFF7F8F8002202212000FFF7F3F8B2
:1012F000002201212000FFF7EEF80122202120002A
:10130000FFF7E9F8012240212000FFF7E4F801226D
:1013100080212000FFF7DFF801220221D848FFF7E3
:10132000DAF88021012289012000FFF7D4F880211A
:101330000122C9012000FFF7CEF801221021200070
:10134000FFF7C9F8022E19D00ADD032E1DD0042E96
:1013500044D1902001220121C005FFF7BCF807E02D
:10136000012E3BD1902001220821C005FFF7B3F8E0
:101370000B2D33D8AD00C34B5B599F469020012203
:101380000421C005FFF7A7F8F2E79020012202210F
:10139000C005FFF7A0F8EBE79024E4050022202128
:1013A0002000FFF798F8002240212000FFF793F873
:1013B000002280212000FFF78EF800220221B04891
:1013C000FFF789F88021002289012000FFF783F8C8
:1013D00080210022C9012000FFF77DF80120FEF7DF
:1013E0004FFF9024E405002208212000FFF773F846
:1013F000002204212000FFF76EF8002202212000C5
:10140000FFF769F8002201212000FFF764F80122AC
:1014100020212000FFF75FF8012240212000FFF784
:101420005AF8012280212000FFF755F801220221FD
:101430009348FFF750F88021012289012000FFF72F
:101440004AF880210122C9012000FFF744F8012257
:1014500010212000FFF73FF870BD9024E405002222
:1014600040212000FFF737F8002280212000FFF7FD
:1014700032F8B3E79024E405002220212000FFF792
:101480002AF8002240212000FFF725F80022102131
:101490002000FFF720F88021002289012000FFF7BB
:1014A0001AF8002202217648FFF715F896E79024F3
:1014B000E405002220212000FFF70DF80022402142
:1014C0002000FFF708F8002210212000FFF703F8A2
:1014D000002280212000FEF7FEFF00220221684842
:1014E000FEF7F9FF7AE79024E4050022402120006E
:1014F000FEF7F1FF002210212000FEF7ECFF802113
:101500000022C9012000FEF7E6FF00228021200012
:10151000FEF7E1FF62E79024E4050022202120008D
:10152000FEF7D9FF80210022C9012000FEF7D3FF7A
:10153000002210212000FEF7CEFF00228021200093
:10154000FEF7C9FF002202214D48FEF7C4FF45E720
:101550009024E405002220212000FEF7BCFF80211A
:101560000022C9012000FEF7B6FF00221021200052
:10157000FEF7B1FF002280212000FEF7ACFF8021A2
:10158000002289012000FEF7A6FF002202213C482C
:10159000FEF7A1FF22E79024E4050022202120008D
:1015A000FEF799FF002240212000FEF794FF002261
:1015B00080212000FEF78FFF10E79024E405002231
:1015C00020212000FEF787FF002240212000FEF7A7
:1015D00082FF002280212000FEF77DFF00220221F1
:1015E0002748FEF778FF8021002289012000FEF7BE
:1015F00072FF80210022C9012000FEF76CFF00224B
:1016000010212000FEF767FFE8E69024E4050022A1
:1016100020212000FEF75FFF002240212000FEF77E
:101620005AFF002280212000FEF755FF00220221F0
:101630001348FEF750FF002210212000FEF74BFF59
:1016400080210022C9012000FEF745FFC6E6902454
:10165000E405002220212000FEF73DFF002210219A
:101660002000FEF738FF8021002289012000FEF7CC
:1016700032FF80210022C9012000FEF72CFFADE6D9
:1016800000040048E41C00089024E4050022202106
:101690002000FEF720FF002240212000FEF71BFF64
:1016A000002280212000FEF716FF002202210848B8
:1016B000FEF711FF8021002289012000FEF70BFFB9
:1016C00080210022C9012000FEF705FF86E6C04602
:1016D00000040048F8B506000D009024E40500223F
:1016E00008212000FEF7F7FE002204212000FEF76B
:1016F000F2FE002202212000FEF7EDFE0022012171
:101700002000FEF7E8FE012220212000FEF7E3FE84
:10171000012240212000FEF7DEFE01228021200070
:10172000FEF7D9FE012202211F48FEF7D4FE8021D8
:10173000012289012000FEF7CEFE80210122C9018D
:101740002000FEF7C8FE012210212000FEF7C3FE94
:10175000092D00DC2F002B000A3B092B21D81F008C
:1017600001212B00143B092B01D81F0002212B0063
:101770001E3B092B01D81F0003212B00283B092BFE
:1017800001D81F0004212B00323B092B01D81F0078
:1017900005213000FFF798FD701C3900FFF794FD1C
:1017A000F8BD0021DDE7C0460004004870B5FEF733
:1017B00049FDFFF759FDFFF7A9FCFFF707FD9AE187
:1017C00096204000FEF75CFDD24D0022D249280051
:1017D000FFF778FCD14C002221002800FFF746FCDF
:1017E0002278CF4B1A606178CE4B1960A078CE4B2F
:1017F0001860CE4B5B68012B6AD0022B6DD0032B97
:101800006FD0042B72D09024E40500220821200020
:10181000FEF761FE002204212000FEF75CFE00229C
:1018200002212000FEF757FE002201212000FEF7D2
:1018300052FE012220212000FEF74DFE0122402110
:101840002000FEF748FE012280212000FEF743FE23
:1018500001220221B648FEF73EFE802101228901C5
:101860002000FEF738FE80210122C9012000FEF78A
:1018700032FE012210212000FEF72DFEAB4B5B68EB
:10188000012B43D0A94B5B68022B6AD0A74B5B6846
:10189000032B00D190E0A54B5B68042B00D1AFE097
:1018A000A24B5B68002B00DCC5E080219020C900C2
:1018B000C005FEF709FE002886D19C4A5368013313
:1018C0005360042B00DC7BE7130000225A6077E7AB
:1018D00011000120FFF7FEFE95E70320FFF7FAFE57
:1018E00091E701000320FFF7F5FE8CE7914B1B68A1
:1018F000002B06D0012B86D10B210220FFF7E4FC40
:1019000081E70A210220FFF7DFFC7CE7802190209D
:101910008900C005FEF7D8FD0028B3D1804A1368BE
:1019200001331360172B02DD130000221A60824C72
:101930007B4B1B6823707B4B1B6863707A4B1B6867
:10194000A370744D00227D492800FFF791FA002210
:1019500021002800FFF70EFA764B5868FEF790FC3E
:1019600090E7802190208900C005FEF7ADFD00289A
:101970008CD16C4A1368013313603B2B02DD1300DA
:1019800000221A606C4C664B1B682370654B1B6809
:101990006370654B1B68A3705E4D00226749280089
:1019A000FFF766FA002221002800FFF7E3F9614BF8
:1019B0005868FEF765FC69E7802190208900C00522
:1019C000FEF782FD002800D065E70023564A136029
:1019D000594C534A12682270524A12686270A370BE
:1019E0004C4D002255492800FFF742FA0022210001
:1019F0002800FFF7BFF94F4B5868FEF741FC4AE754
:101A0000802190208900C005FEF75EFD002800D0EF
:101A100046E7484B1B68002B07D1464B01221A6052
:101A2000444B5868FEF72CFC3AE7012BF8D1414BA8
:101A300000221A60F4E7802190208900C005FEF79B
:101A400043FD00283BD1384B19680330FFF742FEB5
:101A5000364B00221A602F4D00222F492800FFF735
:101A600031FB2E4C002221002800FFF7FFFAA2785C
:101A70002D4B1B689A4203D02C4B5B68002B29D05E
:101A8000264B1978264A11605978264A11609A78AF
:101A9000254B1A60254B1B68092B28DC80219020E0
:101AA000C900C005FEF710FD002800D0F8E61F4B66
:101AB00001225A6096304000FEF7E2FBF0E6184B38
:101AC00019680120FFF706FE164B19680320FFF77F
:101AD00001FEC0E7802190208900C005FEF7F4FCDC
:101AE0000028CDD0114A136801331360C8E7114BA9
:101AF0001B68002BD2D0802190208900C005FEF702
:101B0000E3FC0028C6D1094B00221A603230FEF7F0
:101B1000B7FBBFE784000020340000205C000020F9
:101B2000AC000020A8000020A40000202800002015
:101B30000004004800000020480000207000002041
:101B400082B00A4B996901221143996199690A404F
:101B50000092009ADA69802149050A43DA61DB695B
:101B60000B400193019B02B07047C0460010024039
:101B70000268054B9A4200D07047044A116A8023DC
:101B80001B020B431362F7E70028004000100240DD
:101B90007047FEE77047704710B5FEF763FB10BD56
:101BA000114B1A6801210A431A605A680F48024013
:101BB0005A601A680E4802401A601A680D480240BE
:101BC0001A605A680C4802405A60DA6A0F20824351
:101BD000DA621A6B094802401A635A6B8A435A63E5
:101BE00000229A607047C046001002400CB8FF08FF
:101BF000FFFFF6FEFFFFFBFFFFFFC0FFECFEFFFF56
:101C00000D4885460D480E490E4A002302E0D4587F
:101C1000C4500433C4188C42F9D30B4A0B4C002334
:101C200001E013600432A242FBD3FFF7B9FF00F0DA
:101C300011F8FFF7BBFDFEE70010002000000020B8
:101C40000C000020341D00080C000020B000002013
:101C5000FEE7000070B500260C4D0D4C641BA4106F
:101C6000A64209D1002600F021F80A4D0A4C641B57
:101C7000A410A64205D170BDB300EB5898470136B9
:101C8000EEE7B300EB5898470136F2E72C1D000849
:101C90002C1D00082C1D0008301D00080300121820
:101CA000934200D1704719700133F9E7F8B5C04687
:101CB000F8BC08BC9E467047F8B5C046F8BC08BCE6
:041CC0009E46704785
:101CC40002030405060708090A0B0C0D0E0F101079
:101CD4000102030405060708090A0B0C0D0E0F1078
:101CE400981300085A14000874140008AE1400086D
:101CF400E61400081615000850150008961500088B
:101D0400BA1500080A1600084E16000888160008BE
:101D14000000000000000000010203040607080997
:081D24000000000001020304AD
:041D2C00E9000008C2
:041D3000C1000008E6
:0C1D3400010000006400000000127A00B2
:0400000508001C01D2
:00000001FF
