:020000040800F2
:1000000000100020A91A0008311A0008351A00084B
:1000100000000000000000000000000000000000E0
:10002000000000000000000000000000391A000875
:1000300000000000000000003D1A0008411A0008FE
:10004000F91A000800000000F91A0008F91A00085F
:10005000F91A0008F91A0008F91A0008F91A000834
:1000600000000000F91A0008F91A0008F91A00083F
:10007000F91A0008F91A0008F91A0008000000002F
:10008000F91A00080000000000000000F91A00083A
:1000900000000000F91A0008F91A0008F91A00080F
:1000A00000000000F91A000800000000F91A00081A
:1000B0000000000000000000000000000000000040
:1000C00010B5064C2378002B07D1054B002B02D02E
:1000D000044800E000BF0123237010BD0800002089
:1000E000000000006C1B0008084B10B5002B03D06B
:1000F0000749084800E000BF07480368002B00D10B
:1001000010BD064B002BFBD09847F9E7000000001C
:100110000C0000206C1B00080800002000000000FC
:10012000002243088B4274D303098B425FD3030A36
:100130008B4244D3030B8B4228D3030C8B420DD349
:10014000FF22090212BA030C8B4202D312120902D7
:1001500065D0030B8B4219D300E0090AC30B8B4215
:1001600001D3CB03C01A5241830B8B4201D38B03C3
:10017000C01A5241430B8B4201D34B03C01A524168
:10018000030B8B4201D30B03C01A5241C30A8B42AB
:1001900001D3CB02C01A5241830A8B4201D38B0296
:1001A000C01A5241430A8B4201D34B02C01A52413A
:1001B000030A8B4201D30B02C01A5241CDD2C309AC
:1001C0008B4201D3CB01C01A524183098B4201D328
:1001D0008B01C01A524143098B4201D34B01C01A13
:1001E000524103098B4201D30B01C01A5241C3088B
:1001F0008B4201D3CB00C01A524183088B4201D3FA
:100200008B00C01A524143088B4201D34B00C01AE5
:100210005241411A00D20146524110467047FFE751
:1002200001B5002000F006F802BDC0460029F7D055
:1002300076E770477047C04610B5040000F088FCB0
:10024000FA218900FFF76CFF00F06AF80022210014
:100250000120404200F032F8002010BD10B5064ADF
:10026000116810230B4313600020FFF7E5FF01F036
:10027000B7FB002010BDC04600200240024A1368B0
:10028000013313607047C04628000020014B1868F6
:100290007047C0462800002030B583B00190FFF7BA
:1002A000F5FF0500019C631C00D00134FFF7EEFF51
:1002B000401BA042FAD303B030BDC04670B5002841
:1002C00017DAC0B20F230340083B9B0806339B009C
:1002D000114A944663445A6803242040C000FC3409
:1002E00025008540AA43890121408140114359607E
:1002F00010E08308094DC0339B005C590322104075
:10030000C000FF2632008240944389013140814081
:100310002143595170BDC04600ED00E000E100E00E
:1003200001380A4B98420FD8094A506009490B6AB4
:100330001B021B0AC020000603430B6200239360CC
:1003400007331360002000E001207047FFFFFF002B
:1003500010E000E000ED00E0F0B5474680B482B068
:100360000023A8E001249C40A046224000D1A1E047
:100370004D68022D01D0122D0FD1DF080837BF00C4
:100380003E5807251D40AD000F24AC40A643B4469F
:100390000E69AE40654635433D5004685F00032555
:1003A0002E00BE40F6433440A4464C682540BD4074
:1003B0006446254305604D686C1E012C03D9112D40
:1003C00001D0122D13D185683540AC46CD68BD40B3
:1003D00064462543856045684446A543AC464C6861
:1003E000250901242C409C4065462C434460C46888
:1003F00026408C68BC402643C6604C68E40059D552
:10040000314DAE6901273E43AE61AC693C40019479
:10041000019C9C08A51CAD002C4EAF5903251D4026
:10042000AD000F26AE40B7439026F605B0420AD085
:10043000274EB04209D0274EB04208D0264EB042D7
:1004400007D1032606E0002604E0012602E002268A
:1004500000E00526AE4035003D430234A4001B4EAB
:10046000A5511E4C2568D44326002E404F68FF033B
:1004700001D515432E00194D2E606D682E002640C3
:100480004F68BF0301D515432E00144D6E60AD6853
:100490002E0026404F68FF0201D515432E000F4D58
:1004A000AE60ED682C404E68B60201D52A431400B8
:1004B0000A4AD46001330A681400DC4000D051E7D6
:1004C00002B004BC9046F0BD0010024000000140A4
:1004D0000004004800080048000C004800040140E7
:1004E00003690B4201D0012000E000207047C046A4
:1004F000002A01D0816100E08162704770B582B04E
:1005000004000368DB0763D5C44B5B680C2213400F
:10051000042B08D0C14B5B681340082B0BD1BF4B99
:100520005B68DB0307D5BD4B1B689B0350D5636835
:10053000002B4DD1F7E16368012B06D1B74A136850
:10054000802149020B43136022E0002B09D1B34BF9
:100550001968B34A0A401A601968B24A0A401A6018
:1005600016E0052B0BD1AD4B1A688021C9020A4356
:100570001A601A68802149020A431A6008E0A74BF2
:100580001968A74A0A401A601968A64A0A401A6000
:100590006368002B0ED0FFF779FE050005E0FFF73A
:1005A00075FE401B642800D9BFE19C4B1B689B0370
:1005B000F5D50DE0FFF76AFE050005E0FFF766FEE2
:1005C000401B642800D9B2E1944B1B689B03F5D40F
:1005D00023689B0750D5914B5B680C221A4208D0C8
:1005E0008E4B5B681340082B14D18C4B5B68DB038C
:1005F00010D48A4B1B689B0703D5E368012B00D0FE
:1006000097E186490B68F82293432269D20013438D
:100610000B6031E0E368002B1BD0804A1168012396
:100620000B431360FFF732FE050005E0FFF72EFED7
:10063000401B022800D97EE1784B1B689B07F5D54B
:1006400076490B68F82293432269D20013430B606A
:1006500012E0724A136801218B431360FFF716FE04
:10066000050005E0FFF712FE401B022800D964E1F7
:100670006A4B1B689B07F5D423681B0729D5E369E0
:10068000002B13D0654A516A01230B435362FFF7D5
:10069000FDFD050005E0FFF7F9FD401B022800D92C
:1006A0004DE15E4B5B6A9B07F5D512E05B4A536AEE
:1006B00001218B435362FFF7E9FD050005E0FFF7D9
:1006C000E5FD401B022800D93BE1544B5B6A9B07C8
:1006D000F5D423685B077AD5504BDB69DB000BD47C
:1006E0004E4AD16980235B051943D161D269134019
:1006F0000193019B012500E000254B4B1B68DB05A6
:1007000013D4494A1368802149000B431360FFF753
:10071000BDFD060005E0FFF7B9FD801B642800D988
:1007200011E1414B1B68DB05F5D5A368012B04D112
:100730003A4A116A0B43136220E0002B09D1374B70
:100740001A6A01218A431A621A6A03318A431A62B9
:1007500014E0052B09D1314B196A04220A431A62AD
:10076000196A01220A431A6208E02C4B1A6A012115
:100770008A431A621A6A03318A431A62A368002BF9
:100780000FD0FFF783FD060006E0FFF77FFD801B1B
:10079000264B984200D9D8E0204B1B6A9B07F4D522
:1007A0000EE0FFF773FD060006E0FFF76FFD801B0C
:1007B0001E4B984200D9CAE0184B1B6A9B07F4D421
:1007C000012D04D1154AD169194B0B40D36123681F
:1007D000DB0654D56369012B2CD1104B596B0422D5
:1007E0000A435A63596B01220A435A63FFF74EFDCD
:1007F000050005E0FFF74AFD401B022800D9A8E0EC
:10080000064B5B6B9B07F5D504494B6BF822934372
:100810001A00A369DB0013434B6330E00010024071
:10082000FFFFFEFFFFFFFBFF00700040881300008A
:10083000FFFFFFEF05330CD14D494B6B042293436F
:100840004B634B6BF4329343A269D20013434B6367
:1008500015E0474B596B04220A435A635A6B012136
:100860008A435A63FFF712FD050004E0FFF70EFD0F
:10087000401B02286FD83E4B5B6B9B07F6D4236A64
:10088000002B6AD03A4A52680C210A40082A66D0E6
:10089000022B34D1364A1168364B0B401360FFF7F8
:1008A000F5FC050004E0FFF7F1FC401B022858D8D6
:1008B0002F4B1B689B01F6D42D4BDA6A0F218A431C
:1008C000E16A0A43DA6258682B4A1040A26A616AF8
:1008D0000A4302435A601A68802149040A431A6095
:1008E000FFF7D4FC040004E0FFF7D0FC001B022853
:1008F00039D81F4B1B689B01F6D5002036E01C4AF7
:1009000011681C4B0B401360FFF7C0FC040004E0AF
:10091000FFF7BCFC001B022827D8154B1B689B0166
:10092000F6D4002022E0012020E003201EE0032076
:100930001CE001201AE0032018E0032016E0032049
:1009400014E0032012E0032010E003200EE0032057
:100950000CE003200AE0032008E0002006E001206C
:1009600004E0032002E0032000E0032002B070BD99
:1009700000100240FFFFFFFEFFFFC2FF10B588B06E
:10098000164C1022210004A801F0DEF821001031DD
:100990001022684601F0D8F8114B5A680C23134016
:1009A000042B02D0082B02D015E00E4814E0910C65
:1009B0000F20014004AB5C5C094BDB6A03406946D5
:1009C000C95CD30304D50748FFF7AAFB604303E0E3
:1009D0000548604300E0054808B010BD841B0008CE
:1009E000001002400040190100093D0000127A0089
:1009F00070B505000C00504B1B68012213408B4260
:100A000009D24D4A136801218B43234313601368B5
:100A10000B409C427FD12B689B0706D5474A536801
:100A2000F0218B43A9680B4353602B68DB0747D544
:100A30006A68012A04D1414B1B689B030BD46CE00C
:100A4000022A04D13D4B1B689B0104D467E03B4B59
:100A50001B689B0765D539494B68032083431343C3
:100A60004B60FFF713FC06006B68012B0DD105E00E
:100A7000FFF70CFC801B324B984254D82F4B5B681D
:100A80000C221340042BF3D11AE0022B13D105E002
:100A9000FFF7FCFB801B2A4B984246D8274B5B682C
:100AA0000C221340082BF3D10AE0FFF7EFFB801B69
:100AB000234B98423BD8214B5B680C221A42F4D15D
:100AC0001D4B1B68012213409C4209D21A4A13682D
:100AD00001218B432343136013680B409C4228D1B0
:100AE0002B685B0706D515494A68164B1340EA6820
:100AF00013434B60FFF742FF104B5B681B090F224B
:100B00001340114AD35CD840104B18600020FFF707
:100B100093FB00200EE001200CE001200AE0012000
:100B200008E0012006E0032004E0032002E00320A7
:100B300000E0012070BDC0460020024000100240CD
:100B400088130000FFF8FFFFCC1B00080400002002
:100B5000014B18687047C0460400002070B582B091
:100B600004000368DB035ED53D4BDB69DB000BD47F
:100B70003B4AD16980235B051943D161D269134097
:100B80000193019B012500E00025364B1B68DB0526
:100B900012D4344A1368802149000B431360FFF7D5
:100BA00075FB060004E0FFF771FB801B642850D83A
:100BB0002C4B1B68DB05F6D5294B1A6AC0239B001A
:100BC000134023D0C022920061680A4093421DD096
:100BD000234B186A244A0240196A80267602314360
:100BE00019621E6A2149314019621A62C3070DD584
:100BF000FFF74CFB060005E0FFF748FB801B1C4B92
:100C0000984228D8164B1B6A9B07F5D5144A116ADF
:100C1000154B0B4061680B431362012D03D1D16961
:100C2000144B0B40D3612368DB0706D50C4A136BCA
:100C300003218B43A1680B43136323689B060CD5E8
:100C400007490B6B10229343E26813430B630020A8
:100C500004E0032002E0032000E0002002B070BDA9
:100C60000010024000700040FFFCFFFFFFFFFEFF8E
:100C700088130000FFFFFFEF70B504000268D3681F
:100C8000A0218B43D360FFF701FB050006E0FFF7CF
:100C9000FDFA401BFA239B00984205D82368DB68C5
:100CA0009B06F4D5002000E0032070BD70B5040061
:100CB0000368DA68520613D401225242DA60FFF761
:100CC000E5FA050006E0FFF7E1FA401BFA239B0076
:100CD000984207D82368DB685B06F4D5002002E061
:100CE000002000E0032070BD70B5041E55D0437F86
:100CF000002B02D1037700F08BFE02236377236879
:100D0000CA225A622368773A5A622000FFF7CEFF60
:100D1000051E06D02368FF225A620423637701254B
:100D20003CE0226891681E4B0B40936022689168FA
:100D3000636820690343606903430B43936023683E
:100D4000E2681A6122681169A3681B040B431361EE
:100D50002268D36880218B43D36023689B689B06FD
:100D60000BD42000FFF788FF002806D02368FF225D
:100D70005A6204236377012510E02268116C094B45
:100D80000B4013642268136CA1690B43136423683E
:100D9000FF225A620123637700E00125280070BD1D
:100DA000BFFF8FFFFFFFFBFF002302E001330A3884
:100DB000C0B20928FAD81B01DBB218437047C046FD
:100DC000F8B504000D00037F012B6FD001230377DA
:100DD00001334377002A16D103689B685B0601D470
:100DE0000023CB702878FFF7DFFF07046878FFF750
:100DF000DBFF00020743A878FFF7D6FF0743EB7835
:100E00001B041F430FE003689B685B0601D40023AB
:100E1000CB702F783F046B781B021F43A8780743E1
:100E2000EB781B041F432368CA225A622368773A6F
:100E30005A622000FFF73AFF061E08D02368FF22FF
:100E40005A62042363770023237701262FE0236867
:100E5000184807401F6022689168174B0B40936049
:100E600021688868EB682A69134303438B60226812
:100E7000D36880218B43D36023689B689B060DD485
:100E80002000FFF7F9FE002808D02368FF225A62ED
:100E90000423637700232377012608E02368FF22D9
:100EA0005A62012363770023237700E00226300093
:100EB000F8BDC0467F7F7F00FFFFFBFF70B50400D9
:100EC0000D00037F012B60D00123037701334377AB
:100ED000002A06D14B78D90603D510218B430A335B
:100EE0006B70002A10D1E878FFF75EFF060468787F
:100EF000FFF75AFF00020643A878FFF755FF0643A5
:100F00002B785B031E4309E06B78A878EE783604F3
:100F10001B021E4306432B785B031E432368CA2231
:100F20005A622368773A5A622000FFF7BFFE051E17
:100F300008D02368FF225A620423637700232377B3
:100F4000012523E02368124806405E602268D368CA
:100F500080218B43D36023689B689B060DD42000BF
:100F6000FFF78AFE002808D02368FF225A62042374
:100F7000637700232377012508E02368FF225A6264
:100F8000012363770023237700E00225280070BD4A
:100F90003FFFFF00F8B504000D00037F012B7BD05D
:100FA0000123037701334377002A20D103689B682C
:100FB0005B0601D40023CB702878FFF7F5FE070409
:100FC0006878FFF7F1FE00020743A878FFF7ECFE10
:100FD0000743EB781B041F432023E85CFFF7E4FE84
:100FE00000060743EB691F436B691F4317E0036863
:100FF0009B685B0601D40023CB702F783F046B788D
:101000001B021F43AB781F43EB781B041F432023B5
:10101000EB5C1B061F43EB691F436B691F436E6844
:10102000AB691E432368CA225A622368773A5A6220
:1010300022689168194B0B40936022689168184BA5
:101040000B409360FFF722F905000FE0FFF71EF950
:10105000401BFA239B00984208D92368FF225A625A
:101060000323637700232377032016E02368DA68DD
:10107000D207EBD5DF6123685E6422689368802124
:1010800049000B4393602368FF225A620123637770
:1010900000232377002000E00220F8BDFFFEFFFFC1
:1010A000FFEFFFFF020993009A1853000F22104030
:1010B000C318D8B27047C04670B50C0003689B6A6D
:1010C0004B6003681B695B045B0C8B6003681968E9
:1010D0000E4B0B40190C3F20084020701E0A7F2544
:1010E0002E4066701D40A57040231940E170002A13
:1010F0000AD1FFF7D7FF20703000FFF7D3FF6070F1
:101100002800FFF7CFFFA070002070BD7F7F7F0019
:1011100070B50C00036859680E4B0B40180CE0705A
:10112000190A1F260E4066703F251D40A5705B0BF7
:1011300007210B402370002A0AD1FFF7B3FFE070AC
:101140003000FFF7AFFF60702800FFF7ABFFA07023
:10115000002070BD3FFFFF00F0B589B014220021D0
:1011600003A800F0FAFC284B59698022D2031143EE
:10117000596159690A400092009A59698022920285
:101180001143596159690A400192019A59698022B3
:10119000D202114359615B691A400292029B902569
:1011A000ED05002219492800FFF7A2F900220221CB
:1011B0001748FFF79DF90F23039301240494022796
:1011C00005970026069603A92800FFF7C5F8114BDE
:1011D000039304940594069603A92800FFF7BCF82E
:1011E000039704940594069603A90948FFF7B4F8F9
:1011F000C023DB0003930496059403A92800FFF79E
:10120000ABF809B0F0BDC04600100240FF6000001E
:1012100000040048F0600000F0B591B00BAE14225D
:101220000021300000F099FC0AAF00240A94282223
:101230000021684600F091FC1B4D1C4B2B606C603C
:101240007F23AB601A4BEB602C616C61AC612800B2
:10125000FFF74AFD34707470B470F460346100229A
:1012600031002800FFF7ACFD01263E707E70BE7095
:10127000FE70002239002800FFF720FE6B461C702C
:101280005C709C70019403940494059406940794F4
:1012900020236A46D654E033099300226946280089
:1012A000FFF778FE11B0F0BD7C0000200028004060
:1012B0009311000000B595B03022002108A800F07D
:1012C0004CFC1022002104A800F047FC1022002151
:1012D000684600F042FC03230893023B09930B93FA
:1012E0000F330C9308A8FFF709F907230493002391
:1012F000059306930793002104A8FFF779FB802349
:101300005B020093C0239B0001936846FFF726FC15
:1013100015B000BD70B505000E009024E405002254
:1013200008212000FFF7E4F8002204212000FFF745
:10133000DFF8002202212000FFF7DAF80022012165
:101340002000FFF7D5F8012220212000FFF7D0F878
:10135000012240212000FFF7CBF80122802120004C
:10136000FFF7C6F801220221B348FFF7C1F80122B6
:10137000802189012000FFF7BBF801228021C901EB
:101380002000FFF7B5F8012210212000FFF7B0F888
:10139000022D10D002DC012D05D024E0032D12D047
:1013A000042D18D01FE0012208219020C005FFF76E
:1013B0009FF8012318E0012204219020C005FFF7C7
:1013C00097F8012310E0012202219020C005FFF7C9
:1013D0008FF8012308E0012201219020C005FFF7CA
:1013E00087F8012300E00023012B00D022E1092E21
:1013F00000D91FE1B600914B9B599F469024E4050C
:10140000002220212000FFF773F800224021200055
:10141000FFF76EF8002280212000FFF769F8002214
:1014200002218548FFF764F800228021890120000D
:10143000FFF75EF800228021C9012000FFF758F86D
:10144000F8E09024E405002240212000FFF750F846
:10145000002280212000FFF74BF8EBE09024E40508
:10146000002220212000FFF743F800224021200025
:10147000FFF73EF8002210212000FFF739F8002284
:10148000802189012000FFF733F8002202216A48F9
:10149000FFF72EF8CEE09024E40500222021200062
:1014A000FFF726F8002240212000FFF721F8002254
:1014B00010212000FFF71CF8002280212000FFF7F8
:1014C00017F8002202215C48FFF712F8B2E09024DE
:1014D000E405002240212000FFF70AF80022102135
:1014E0002000FFF705F800228021C9012000FEF747
:1014F000FFFF002280212000FEF7FAFF9AE09024EF
:10150000E405002220212000FEF7F2FF00228021C6
:10151000C9012000FEF7ECFF002210212000FEF799
:10152000E7FF002280212000FEF7E2FF00220221D7
:101530004148FEF7DDFF7DE09024E40500222021F4
:101540002000FEF7D5FF00228021C9012000FEF710
:10155000CFFF002210212000FEF7CAFF00228021C9
:101560002000FEF7C5FF0022802189012000FEF740
:10157000BFFF002202213048FEF7BAFF5AE0902454
:10158000E405002220212000FEF7B2FF00224021C6
:101590002000FEF7ADFF002280212000FEF7A8FF0B
:1015A00048E09024E405002220212000FEF7A0FF5F
:1015B000002240212000FEF79BFF00228021200016
:1015C000FEF796FF002202211B48FEF791FF002242
:1015D000802189012000FEF78BFF00228021C901B4
:1015E0002000FEF785FF002210212000FEF780FF7B
:1015F00020E09024E405002220212000FEF778FF5F
:10160000002240212000FEF773FF002280212000ED
:10161000FEF76EFF002202210748FEF769FF002255
:1016200010212000FEF764FF00228021C901200064
:10163000FEF75EFF70BDC04600040048A41B000812
:10164000F8B506000D009024E405002208212000D2
:10165000FEF74EFF002204212000FEF749FF002282
:1016600002212000FEF744FF002201212000FEF7A6
:101670003FFF012220212000FEF73AFF01224021F6
:101680002000FEF735FF012280212000FEF730FF09
:10169000012202212248FEF72BFF0122802189012D
:1016A0002000FEF725FF01228021C9012000FEF75E
:1016B0001FFF012210212000FEF71AFF092D00DC78
:1016C0002F002B000A3B092B02D81F00012100E04C
:1016D00000212B00143B092B01D81F0002212B00F5
:1016E0001E3B092B01D81F0003212B00283B092B8F
:1016F00001D81F0004212B00323B092B01D81F0009
:1017000005213000FFF706FE0120FEF7C5FD701C25
:101710003900FFF7FFFD0120FEF7BEFDF8BDC04612
:101720000004004870B5FEF799FDFFF7C3FDFFF711
:1017300013FDFFF771FD8021C9009020C005FEF761
:10174000CFFE002800D002E101229A4B1A602D3012
:10175000FF30FEF7A1FDFAE08021C9009020C0050E
:10176000FEF7BEFE00280CD1924A136801331360C5
:10177000032B02DD00228F4B1A6096204000FEF7FB
:101780008BFD8D4D00228D492800FFF7C1FC8C4C4C
:10179000002221002800FFF78FFC2278894B1A6075
:1017A0006178894B1960A078884B1860814B1B6861
:1017B000012B04D111000120FFF742FF0BE0022BA7
:1017C00003D10320FFF73CFF05E0032B03D1010009
:1017D0000320FFF735FF9024E405002208212000B4
:1017E000FEF786FE002204212000FEF781FE002283
:1017F00002212000FEF77CFE002201212000FEF7DE
:1018000077FE012220212000FEF772FE01224021F6
:101810002000FEF76DFE012280212000FEF768FE09
:10182000012202216A48FEF763FE0122802189011C
:101830002000FEF75DFE01228021C9012000FEF795
:1018400057FE012210212000FEF752FE594B1B6863
:10185000012B28D1802189002000FEF741FE0028BD
:1018600021D1584A136801331360172B02DD00227F
:10187000544B1A60574C534B1B682370524B1B68D8
:101880006370524B1B68A3704B4D002252492800D5
:10189000FFF714FB002221002800FFF791FA4F4BBD
:1018A0001868FEF7F9FC434B1B68022B29D18021F5
:1018B00089009020C005FEF713FE002821D1424A7E
:1018C0001368013313603B2B02DD00223E4B1A608C
:1018D000404C3C4B1B6823703B4B1B6863703B4B7D
:1018E0001B68A370344D00223B492800FFF7E6FA3D
:1018F000002221002800FFF763FA384B1868FEF732
:10190000CBFC2C4B1B68032B21D18021890090201C
:10191000C005FEF7E5FD002819D100232B4A13600E
:101920002C4C284A12682270274A12686270A370F1
:10193000214D002228492800FFF7C0FA002221008B
:101940002800FFF73DFA254B1868FEF7A5FC194B58
:101950001B68002B00DDFFE6802189009020C00578
:10196000FEF7BEFD002805D1184B19680330FFF7BC
:1019700067FE09E0134B19680120FFF761FE124B67
:1019800019680320FFF75CFE0B4D00220B4928006D
:10199000FFF7BEFB0A4C002221002800FFF78CFB5A
:1019A0002278084B1A606278074B1A60A278074BBE
:1019B0001A60C0E6240000207C0000202C000020DB
:1019C00054000020A4000020A00000209C00002063
:1019D00000040048400000206800002000000020B3
:1019E00082B00A4B99690120014399619A690240CA
:1019F0000092009AD969802252051143D961DB69AE
:101A00001A400192019B02B07047C046001002408C
:101A10000268054B9A4205D1044A136A80210902E3
:101A20000B4313627047C04600280040001002407C
:101A30007047C046FEE7C0467047C0467047C04684
:101A400010B5FEF71BFC10BD114B1A6801210A43AB
:101A50001A6058680F4A02405A6018680E4A0240DD
:101A60001A6018680D4A02401A6058680C4A024011
:101A70005A60DA6A0F208243DA62186B094A024020
:101A80001A635A6B8A435A6300229A607047C046B1
:101A9000001002400CB8FF08FFFFF6FEFFFFFBFF3F
:101AA000FFFFC0FFECFEFFFF0D4885460D480E49C5
:101AB0000E4A002302E0D458C4500433C4188C42A8
:101AC000F9D30B4A0B4C002301E013600432A2420D
:101AD000FBD3FFF7B9FF00F011F8FFF723FEFEE795
:101AE000001000200000002008000020EC1B00086F
:101AF00008000020A8000020FEE700000E4B70B593
:101B000000251E000D4CE41AA410A54204D0AB0021
:101B1000F35898470135F8E700F028F8084B0025FE
:101B20001E00084CE41AA410A54204D0AB00F358E0
:101B300098470135F8E770BDE41B0008E41B000876
:101B4000E41B0008E81B0008002310B59A4203D0EC
:101B5000CC5CC4540133F9E710BD030082189342F2
:101B600002D019700133FAE770470000F8B5C0469B
:101B7000F8BC08BC9E467047F8B5C046F8BC08BC27
:041B80009E467047C6
:101B840002030405060708090A0B0C0D0E0F1010BA
:101B94000102030405060708090A0B0C0D0E0F10B9
:101BA400FC130008421400085C1400089614000892
:101BB400CE140008FE140008381500087E1500082D
:101BC400A2150008F2150008000000000000000043
:101BD40001020304060708090000000001020304CF
:041BE400E90000080C
:041BE800C100000830
:081BEC006400000000127A0001
:0400000508001AA92C
:00000001FF
