:020000040800F2
:1000000000100020A10D0008290D00082D0D00088A
:1000100000000000000000000000000000000000E0
:10002000000000000000000000000000310D00088A
:100030000000000000000000350D0008390D000828
:10004000F10D000800000000F10D0008F10D00089E
:10005000F10D0008F10D0008F10D0008F10D000888
:1000600000000000F10D0008F10D0008F10D00087E
:10007000F10D0008F10D0008F10D0008000000006E
:10008000F10D00080000000000000000F10D000864
:1000900000000000F10D0008F10D0008F10D00084E
:1000A00000000000F10D000800000000F10D000844
:1000B0000000000000000000000000000000000040
:1000C00010B5064C2378002B07D1054B002B02D02E
:1000D000044800E000BF0123237010BD040000208D
:1000E00000000000640E0008084B10B5002B03D080
:1000F0000749084800E000BF07480368002B00D10B
:1001000010BD064B002BFBD09847F9E7000000001C
:1001100008000020640E0008040000200000000019
:10012000002243088B4274D303098B425FD3030A36
:100130008B4244D3030B8B4228D3030C8B420DD349
:10014000FF22090212BA030C8B4202D312120902D7
:1001500065D0030B8B4219D300E0090AC30B8B4215
:1001600001D3CB03C01A5241830B8B4201D38B03C3
:10017000C01A5241430B8B4201D34B03C01A524168
:10018000030B8B4201D30B03C01A5241C30A8B42AB
:1001900001D3CB02C01A5241830A8B4201D38B0296
:1001A000C01A5241430A8B4201D34B02C01A52413A
:1001B000030A8B4201D30B02C01A5241CDD2C309AC
:1001C0008B4201D3CB01C01A524183098B4201D328
:1001D0008B01C01A524143098B4201D34B01C01A13
:1001E000524103098B4201D30B01C01A5241C3088B
:1001F0008B4201D3CB00C01A524183088B4201D3FA
:100200008B00C01A524143088B4201D34B00C01AE5
:100210005241411A00D20146524110467047FFE751
:1002200001B5002000F006F802BDC0460029F7D055
:1002300076E770477047C04610B5040000F07AFCBE
:10024000FA218900FFF76CFF00F06AF80022210014
:100250000120404200F032F8002010BD10B5064ADF
:10026000116810230B4313600020FFF7E5FF00F037
:1002700043FD002010BDC04600200240024A136822
:10028000013313607047C04620000020014B1868FE
:100290007047C0462000002030B583B00190FFF7C2
:1002A000F5FF0500019C631C00D00134FFF7EEFF51
:1002B000401BA042FAD303B030BDC04670B5002841
:1002C00017DAC0B20F230340083B9B0806339B009C
:1002D000114A944663445A6803242040C000FC3409
:1002E00025008540AA43890121408140114359607E
:1002F00010E08308094DC0339B005C590322104075
:10030000C000FF2632008240944389013140814081
:100310002143595170BDC04600ED00E000E100E00E
:1003200001380A4B98420FD8094A506009490B6AB4
:100330001B021B0AC020000603430B6200239360CC
:1003400007331360002000E001207047FFFFFF002B
:1003500010E000E000ED00E0F0B5474680B482B068
:100360000023A8E001249C40A046224000D1A1E047
:100370004D68022D01D0122D0FD1DF080837BF00C4
:100380003E5807251D40AD000F24AC40A643B4469F
:100390000E69AE40654635433D5004685F00032555
:1003A0002E00BE40F6433440A4464C682540BD4074
:1003B0006446254305604D686C1E012C03D9112D40
:1003C00001D0122D13D185683540AC46CD68BD40B3
:1003D00064462543856045684446A543AC464C6861
:1003E000250901242C409C4065462C434460C46888
:1003F00026408C68BC402643C6604C68E40059D552
:10040000314DAE6901273E43AE61AC693C40019479
:10041000019C9C08A51CAD002C4EAF5903251D4026
:10042000AD000F26AE40B7439026F605B0420AD085
:10043000274EB04209D0274EB04208D0264EB042D7
:1004400007D1032606E0002604E0012602E002268A
:1004500000E00526AE4035003D430234A4001B4EAB
:10046000A5511E4C2568D44326002E404F68FF033B
:1004700001D515432E00194D2E606D682E002640C3
:100480004F68BF0301D515432E00144D6E60AD6853
:100490002E0026404F68FF0201D515432E000F4D58
:1004A000AE60ED682C404E68B60201D52A431400B8
:1004B0000A4AD46001330A681400DC4000D051E7D6
:1004C00002B004BC9046F0BD0010024000000140A4
:1004D0000004004800080048000C004800040140E7
:1004E000002A01D0816100E08162704770B582B05E
:1004F00004000368DB0763D5C44B5B680C22134020
:10050000042B08D0C14B5B681340082B0BD1BF4BA9
:100510005B68DB0307D5BD4B1B689B0350D5636845
:10052000002B4DD1F7E16368012B06D1B74A136860
:10053000802149020B43136022E0002B09D1B34B09
:100540001968B34A0A401A601968B24A0A401A6028
:1005500016E0052B0BD1AD4B1A688021C9020A4366
:100560001A601A68802149020A431A6008E0A74B02
:100570001968A74A0A401A601968A64A0A401A6010
:100580006368002B0ED0FFF781FE050005E0FFF742
:100590007DFE401B642800D9BFE19C4B1B689B0378
:1005A000F5D50DE0FFF772FE050005E0FFF76EFEE2
:1005B000401B642800D9B2E1944B1B689B03F5D41F
:1005C00023689B0750D5914B5B680C221A4208D0D8
:1005D0008E4B5B681340082B14D18C4B5B68DB039C
:1005E00010D48A4B1B689B0703D5E368012B00D00E
:1005F00097E186490B68F82293432269D20013439E
:100600000B6031E0E368002B1BD0804A11680123A6
:100610000B431360FFF73AFE050005E0FFF736FED7
:10062000401B022800D97EE1784B1B689B07F5D55B
:1006300076490B68F82293432269D20013430B607A
:1006400012E0724A136801218B431360FFF71EFE0C
:10065000050005E0FFF71AFE401B022800D964E1FF
:100660006A4B1B689B07F5D423681B0729D5E369F0
:10067000002B13D0654A516A01230B435362FFF7E5
:1006800005FE050005E0FFF701FE401B022800D92A
:100690004DE15E4B5B6A9B07F5D512E05B4A536AFE
:1006A00001218B435362FFF7F1FD050005E0FFF7E1
:1006B000EDFD401B022800D93BE1544B5B6A9B07D0
:1006C000F5D423685B077AD5504BDB69DB000BD48C
:1006D0004E4AD16980235B051943D161D269134029
:1006E0000193019B012500E000254B4B1B68DB05B6
:1006F00013D4494A1368802149000B431360FFF764
:10070000C5FD060005E0FFF7C1FD801B642800D988
:1007100011E1414B1B68DB05F5D5A368012B04D122
:100720003A4A116A0B43136220E0002B09D1374B80
:100730001A6A01218A431A621A6A03318A431A62C9
:1007400014E0052B09D1314B196A04220A431A62BD
:10075000196A01220A431A6208E02C4B1A6A012125
:100760008A431A621A6A03318A431A62A368002B09
:100770000FD0FFF78BFD060006E0FFF787FD801B1B
:10078000264B984200D9D8E0204B1B6A9B07F4D532
:100790000EE0FFF77BFD060006E0FFF777FD801B0C
:1007A0001E4B984200D9CAE0184B1B6A9B07F4D431
:1007B000012D04D1154AD169194B0B40D36123682F
:1007C000DB0654D56369012B2CD1104B596B0422E5
:1007D0000A435A63596B01220A435A63FFF756FDD5
:1007E000050005E0FFF752FD401B022800D9A8E0F4
:1007F000064B5B6B9B07F5D504494B6BF822934383
:100800001A00A369DB0013434B6330E00010024081
:10081000FFFFFEFFFFFFFBFF00700040881300009A
:10082000FFFFFFEF05330CD14D494B6B042293437F
:100830004B634B6BF4329343A269D20013434B6377
:1008400015E0474B596B04220A435A635A6B012146
:100850008A435A63FFF71AFD050004E0FFF716FD0F
:10086000401B02286FD83E4B5B6B9B07F6D4236A74
:10087000002B6AD03A4A52680C210A40082A66D0F6
:10088000022B34D1364A1168364B0B401360FFF708
:10089000FDFC050004E0FFF7F9FC401B022858D8D6
:1008A0002F4B1B689B01F6D42D4BDA6A0F218A432C
:1008B000E16A0A43DA6258682B4A1040A26A616A08
:1008C0000A4302435A601A68802149040A431A60A5
:1008D000FFF7DCFC040004E0FFF7D8FC001B022853
:1008E00039D81F4B1B689B01F6D5002036E01C4A07
:1008F00011681C4B0B401360FFF7C8FC040004E0B8
:10090000FFF7C4FC001B022827D8154B1B689B016E
:10091000F6D4002022E0012020E003201EE0032086
:100920001CE001201AE0032018E0032016E0032059
:1009300014E0032012E0032010E003200EE0032067
:100940000CE003200AE0032008E0002006E001207C
:1009500004E0032002E0032000E0032002B070BDA9
:1009600000100240FFFFFFFEFFFFC2FF10B588B07E
:10097000144C1022210004A800F062FA210010316A
:100980001022684600F05CFA0F4B5A680C231340A3
:10099000082B13D1910C0F20014004AB5C5C0A4B77
:1009A000DB6A03406946C95CD30304D50748FFF7F7
:1009B000B7FB604303E00648604300E0034808B02B
:1009C00010BDC0467C0E00080010024000127A00E4
:1009D00000093D0070B505000C00504B1B6801225A
:1009E00013408B4209D24D4A136801218B432343A4
:1009F000136013680B409C427FD12B689B0706D580
:100A0000474A5368F0218B43A9680B4353602B6816
:100A1000DB0747D56A68012A04D1414B1B689B0359
:100A20000BD46CE0022A04D13D4B1B689B0104D41B
:100A300067E03B4B1B689B0765D539494B68032032
:100A4000834313434B60FFF721FC06006B68012BC7
:100A50000DD105E0FFF71AFC801B324B984254D8A9
:100A60002F4B5B680C221340042BF3D11AE0022BAE
:100A700013D105E0FFF70AFC801B2A4B984246D8A9
:100A8000274B5B680C221340082BF3D10AE0FFF7D9
:100A9000FDFB801B234B98423BD8214B5B680C220B
:100AA0001A42F4D11D4B1B68012213409C4209D20B
:100AB0001A4A136801218B432343136013680B40C8
:100AC0009C4228D12B685B0706D515494A68164B0E
:100AD0001340EA6813434B60FFF748FF104B5B6815
:100AE0001B090F221340114AD35CD840104B1860E9
:100AF0000020FFF7A1FB00200EE001200CE0012008
:100B00000AE0012008E0012006E0032004E00320C1
:100B100002E0032000E0012070BDC046002002403A
:100B20000010024088130000FFF8FFFF9C0E000831
:100B300000000020014B18687047C04600000020EC
:100B4000F0B589B01422002103A800F082F91B4BF4
:100B50005969802292021143596159690A400192F0
:100B6000019A59698022D202114359615B691A4086
:100B70000292029B124C9027FF05002221003800B0
:100B8000FFF7AEFC0F4D002202212800FFF7A8FC62
:100B900003940126049600240594069403A93800C2
:100BA000FFF7DAFB0223039304960594069403A946
:100BB0002800FFF7D1FB09B0F0BDC046001002408D
:100BC000FC6600000004004800B591B0302200210E
:100BD00004A800F03EF910220021684600F039F91F
:100BE00002230493013B07930F33089304A8FFF7F4
:100BF0007DFC0723009300230193029303930021BC
:100C00006846FFF7E7FE11B000BDC046F8B5FFF734
:100C100025FBFFF7D9FFFFF793FF9024E40500229F
:100C20008021C9012000FFF75BFC00221021200079
:100C3000FFF756FC002208212000FFF751FC00229C
:100C400004212000FFF74CFC012220212000FFF7A7
:100C500047FC012240212000FFF742FC01228021B5
:100C60002000FFF73DFC234F012202213800FFF74F
:100C700037FC8026B600012231002000FFF730FC4F
:100C80008025ED00012229002000FFF729FC012228
:100C9000802189012000FFF723FC01221021200080
:100CA000FFF71EFC002220212000FFF719FC002284
:100CB00040212000FFF714FC002280212000FFF7D4
:100CC0000FFC002202213800FFF70AFC002231004D
:100CD0002000FFF705FC002229002000FFF700FCA0
:100CE0000022802189012000FFF7FAFB3220FFF764
:100CF000D3FA92E70004004882B00A4B99690120B8
:100D0000014399619A6902400092009AD969802250
:100D100052051143D961DB691A400192019B02B06F
:100D20007047C046001002407047C046FEE7C0460C
:100D30007047C0467047C04610B5FFF79FFA10BD18
:100D4000114B1A6801210A431A6058680F4A024081
:100D50005A6018680E4A02401A6018680D4A02402C
:100D60001A6058680C4A02405A60DA6A0F208243BF
:100D7000DA62186B094A02401A635A6B8A435A6353
:100D800000229A607047C046001002400CB8FF086D
:100D9000FFFFF6FEFFFFFBFFFFFFC0FFECFEFFFFC4
:100DA0000D4885460D480E490E4A002302E0D458EE
:100DB000C4500433C4188C42F9D30B4A0B4C0023A3
:100DC00001E013600432A242FBD3FFF7B9FF00F049
:100DD00011F8FFF71BFFFEE70010002000000020C5
:100DE00004000020BC0E00080400002024000020A5
:100DF000FEE700000E4B70B500251E000D4CE41AF6
:100E0000A410A54204D0AB00F35898470135F8E789
:100E100000F028F8084B00251E00084CE41AA41026
:100E2000A54204D0AB00F35898470135F8E770BDF0
:100E3000B40E0008B40E0008B40E0008B80E000886
:100E4000002310B59A4203D0CC5CC4540133F9E7B7
:100E500010BD03008218934202D019700133FAE7E3
:100E600070470000F8B5C046F8BC08BC9E46704705
:0C0E7000F8B5C046F8BC08BC9E467047B0
:100E7C0002030405060708090A0B0C0D0E0F1010CF
:100E8C000102030405060708090A0B0C0D0E0F10CE
:100E9C00000000000000000001020304060708091E
:080EAC00000000000102030434
:040EB400E900000849
:040EB800C10000086D
:040EBC0000127A00A6
:0400000508000DA141
:00000001FF
